:020000040800F2
:10000000B0160020B9020008C1020008C3020008AF
:10001000C5020008C7020008C9020008000000006D
:10002000000000000000000000000000CB020008FB
:10003000CD02000800000000CF0200081562000891
:10004000D3020008D3020008D3020008D30200083C
:10005000D3020008D3020008D3020008D30200082C
:10006000D3020008D3020008D3020008B11D000823
:10007000D3020008D3020008D3020008D30200080C
:10008000D3020008D3020008D302000897760008C4
:1000900099760008D3020008D3020008D3020008B2
:1000A000F565000825680008156800080566000861
:1000B0002D6800085D6C0008696E0008E5450008C1
:1000C000D3020008D3020008D3020008D3020008BC
:1000D000D30200087575000885750008957500083D
:1000E000D3020008D302000895760008D302000866
:1000F000816F0008D3020008BD6E0008D30200081B
:10010000D3020008D3020008716E0008D302000871
:10011000D3020008D3020008756E0008996E00082B
:10012000D3020008D3020008D3020008D30200085B
:1001300000F002F800F0B0F80AA090E8000C824449
:100140008344AAF10107DA4501D100F0A5F8AFF226
:10015000090EBAE80F0013F0010F18BFFB1A43F0A5
:1001600001031847709F0000909F00000A444FF061
:10017000000C10F8013B13F0070408BF10F8014B06
:100180001D1108BF10F8015B641E05D010F8016B4B
:10019000641E01F8016BF9D113F0080F1EBF10F8AF
:1001A000014BAD1C0C1B09D16D1E58BF01F801CBD2
:1001B000FAD505E014F8016B01F8016B6D1EF9D555
:1001C0009142D6D37047000000230024002500266A
:1001D000103A28BF78C1FBD8520728BF30C148BFAA
:1001E0000B6070476E2900F06382702900F0B385C0
:1001F000662909F0FC85652909F0F985672909F068
:10020000F685612909F0F58503681B0A28BF41F0CE
:100210008001692900F0AA80642900F0A78075296F
:1002200000F0A4806F2900F04185782900F07F85D7
:10023000E92900F0DB84E42900F0D884F52900F0F6
:10024000D584EF2900F03E85F82900F07E8503680B
:10025000DB0928BF41F08001632900F09D877329E5
:1002600000F0A287E32900F0AD87F32900F0B28700
:10027000002070471FB500F079FD04000020002128
:1002800008F0FEFC401C60600020002108F0E2FC49
:10029000E0601FBD10B510BD01F032F81146FFF748
:1002A000E9FF08F093F801F059F803B4FFF7F2FF03
:1002B00003BC01F099F8000009488047094800474D
:1002C000FEE7FEE7FEE7FEE7FEE7FEE7FEE7FEE706
:1002D000FEE7FEE704480549054A064B7047000063
:1002E0005563000831010008B0100020B01600204E
:1002F000B0120020B01200201CB50C46064B7B4407
:1003000069460090204600F0FAFB0446002069464A
:1003100000F008FC20461CBD2308000070B5044610
:1003200085690068C10601D5302600E02026C00797
:1003300007D070BDD4E9012130469047206A401CA7
:1003400020626D1EF6D570BD70B5044685690078D3
:10035000C00707D170BDD4E9012120209047206A51
:10036000401C20626D1EF6D570BD00002DE9F041E5
:100370000646002410687529314616A510D000F0F5
:1003800003F9002802DA404213A507E031688A0722
:1003900001D512A502E0490704D511A5012401E009
:1003A00000F0FBF800210A2206F1240709E0B0FB67
:1003B000F2FCB0FBF2F302FB1C003030785418461C
:1003C000491C0028F3D123462A463046BDE8F041B7
:1003D00000F015B9000000002D0000002B00000007
:1003E000200000002DE9F05F894604464FF0000A26
:1003F000DFF874B1FB44C0F820A02046E1688847CC
:10040000002874D0252806D0D4E901219047206A1D
:10041000401C2062F1E700265F462046E1688847DD
:100420002028054607DB312D05D2781910F8200C5D
:1004300008B10643F1E7B00701D526F00406C4F879
:100440001CA00027C4F818A02A2D09D0284607F0C0
:1004500051FC38B304EB8708303DC8F8185019E058
:1004600059F8041B204604EB87029161E168884734
:10047000012F054618D1E069002820DA26F0200671
:100480001DE0D8F8180000EB800005EB4000303884
:10049000C8F818002046E1688847054607F02AFC9E
:1004A0000028EED1012F0AD02E2D08D12046E16878
:1004B00088477F1C0546022F46F02006C4DBA06952
:1004C000002803DA404246F00106A061F00701D09F
:1004D00026F010066C2D0BD0682D09D04C2D39D08C
:1004E0006A2D35D0742D35D07A2D33D016E038E012
:1004F000E1682F4620468847B842054609D16C2F4F
:1005000026D04FF48060E1680643204688470546C0
:1005100004E06C2F1AD04FF4807006430DB3A5F1A0
:100520004100192802D8203546F400664A4629467B
:10053000204626604E46FFF755FE80B101280BD0BD
:10054000F61D26F0070000F1080956E74020E4E711
:100550008020D8E70020D6E706F104094DE72846B9
:1005600052E7206ABDE8F09FEE9A0000704770479E
:10057000704710B500F0FEFB006810BD10B50446D2
:1005800000F0F8FB046010BD09684A0501D540B2CF
:100590007047C905FCD500B2704709684A0501D506
:1005A000C0B27047C905FCD580B2704770B50C4623
:1005B0000546012A05D02878800600D5EA6900237F
:1005C00002E0012305E05B1C934202D2E05C0028BC
:1005D000F9D1A869E618C01AA861286A18442862E7
:1005E0002846FFF79BFE04E0D5E9012114F8010B32
:1005F0009047B442F8D32846FFF7A6FE70BD2DE918
:10060000F0470D4699469246044600F124080168D9
:10061000880604D5E06921F01001216000E0012086
:10062000A84201DD471B00E00027A1697A1902EB0F
:100630000900081AA0612078C00602D42046FFF7FE
:100640006DFE002608E0D4E901211AF80600904763
:10065000206A401C761C20624E45F4DB2078C006E0
:100660000AD52046FFF75AFE06E0D4E901213020E2
:100670009047206A401C2062381EA7F10107F4DC75
:1006800007E0D4E9012118F805009047206A401CD2
:100690002062281EA5F10105F3DC2046FFF754FE79
:1006A0002078000602D50220BDE8F0870120FBE794
:1006B00011680268006A530501D508700AE0D30585
:1006C00001D5088006E0130603D5C217C1E9000270
:1006D00000E008600120704770472DE9FF4F0C468D
:1006E0001E464FF0FF378BB0D2E90001DDF8608085
:1006F0000A908A46C1F30A5505B93D4600210846CD
:100700004FF00000BAF1000F00F4400005DA00EBF2
:1007100080004FF4400101EA50004FEA9059B9F1CE
:10072000010F00DDB9460A9850EA4A000ED044F69F
:100730001050A5F2FF3545432F14B8F1000F1ED01D
:100740007542291E1EDDC9F100021CE0B8F1010F3F
:100750004FF0000001D0302103E0F24305E02154C6
:10076000401CB042FBDB30460022002121540B9993
:10077000C1F80880C1E900200FB0BDE8F08FBD1BB3
:100780006D1CDEE74A4600DA694206A800F026FD45
:1007900006AB93E8070003AB83E8070050460A99CD
:1007A00000F029FE8DE80700A0F500501F380090EA
:1007B0000398002D09DD42F21F014A46084403A9AF
:1007C0000390684601F088F808E0A0F500504A461A
:1007D0001F3803A90390684601F092F88DE80700DE
:1007E0000004000C03D04FF0FF30410800E0104639
:1007F000B8F1000F03D00022009215461EE0751ECE
:1008000005D400F0BBFA303262556D1EF9D5B346FF
:100810000122084302D000227F1C04E02078302807
:1008200001D100227F1E002A099786D01DE0112DDC
:1008300007DA00F0A3FA303262556D1C50EA01026B
:10084000F5D1084302D00098C8B10EE00021681E1F
:1008500005E0235C625C63542254401E491C8142C3
:10086000F7DBAB46A81B401E0990002004F80B00E4
:100870000B98099AC0F80880C0E9002B7CE7112684
:100880004FF0000859E72DE9F04F88460446D21D85
:1008900022F0070191B0D1E90001CDE90A0107F08A
:1008A000ADF902460B98C00F01D02D2007E020685B
:1008B000810701D52B2002E0202101EAC000032A94
:1008C000099001D0072A05DB03464146204600F087
:1008D00019FC0BE12078800601D5E06900E00620D4
:1008E000B8F1650F814606D0B8F1660F18D0B8F19F
:1008F000670F70D131E00020B9F1110F009001DBDA
:10090000112301E009F101030AAA01A90CA8FFF7CC
:10091000E4FEDDE90C70002609F10105834647E09D
:1009200001204B4600904FF000470AAA01A90CA8ED
:10093000FFF7D3FEDDE90DB00C995D46002610B936
:1009400009F101000D18B9EB050003D4C0F1FF3621
:1009500009F10105A5EB09002BE0B9F1010F01DA5E
:100960004FF001090020B9F1110F0090484601DD58
:10097000112300E003460AAA01A90CA8FFF7ADFE67
:10098000DDE90C704D4600268346207800070AD426
:10099000AB4500DA5D4601A8012D04DD411911F8CF
:1009A000011C302907D04F4502DA17F1040F04DA91
:1009B000012082460FE06D1EEEE7002F02DCED1BEA
:1009C0003E4403E0781CA84200DD7D1CB81B00F10A
:1009D000010A4FF000472078000703D4AA4501DB45
:1009E0004FF0FF3A0021B7F1004F0DF143088DF8A9
:1009F000431024D002202B23002F01DA7F422D2325
:100A00000A21021EA0F1010000DC5FB197FBF1FC9E
:100A100097FBF1F201FB1C7C17460CF1300C08F837
:100A200001CDEEE7A8F1010003702188090501D589
:100A3000452100E06521A0F1010800F8011C09989A
:100A40000FA9A1EB0807FF1D00B10120411901EB1F
:100A5000EA70A1693844081A401EA0612078C006D7
:100A600002D42046FFF75AFC099828B1D4E90121A5
:100A70009047206A401C20622078C00622D520467C
:100A8000FFF74CFC1EE0002E04DBB34502DD01A89D
:100A9000805D00E03020D4E901219047206A401CAD
:100AA0002062761CAAF101005FEA000A0AD100F078
:100AB0005DF9C0680168405CD4E901219047206A73
:100AC000401C2062281EA5F10105DCDC07E0D4E90A
:100AD000012118F8010B9047206A401C2062381E43
:100AE000A7F10107F3DC2046FFF72EFC032011B02D
:100AF00043E6000001694A1C02610878704700B5AE
:100B00008FB0CDE901310021059105497944CDE946
:100B1000031011466846FFF765FC0FB000BD0000EA
:100B2000E5FFFFFF0A6802F8010B0A60704700004A
:100B30002DE9FF5F15468A460446DFF8AC80F8448D
:100B40000027D8E900103E46CDE9001010E03AF841
:100B500016106A4602A800F0AFFB411C07D02178AE
:100B6000890603D5E269391891420DD80744761CED
:100B70002078800602D5E069B84205DDAE42E6DBAA
:100B80003AF816000028E2D1A069C01BA0612046F7
:100B9000FFF7C4FBD8E90010CDE90010002017E0F2
:100BA0003AF818106A4602A800F086FBB0F1FF3F41
:100BB00081460BD000250DF1080B05E0D4E9012199
:100BC0001BF8050090476D1C4D45F7D308F1010057
:100BD000B0428046E4DB206A384420622046FFF7BA
:100BE000B3FBBDE8FF9F0000069400002DE9F04133
:100BF0008046D21D22F007020025D2E90002F52925
:100C000015A614D0011E72F1000106DA0023D0EB04
:100C1000030063EB020211A608E0D8F800108B076E
:100C200001D50FA602E0490701D50EA60125114600
:100C3000002408F1240704E000F0A0F830323A550F
:100C4000641C50EA0102F7D12B4632462146404649
:100C5000BDE8F041FFF7D3BC000000002D0000000C
:100C60002B0000002000000030B4002100F124041B
:100C700008E002F00705D208303542EA4372DB088B
:100C80006554491C52EA0305F3D10468002310A2FD
:100C9000250708D504F020040C4304D0C4690123BF
:100CA0000CA2641EC46130BCFFF7A9BC10B5044699
:100CB00021461068FFF771FC02462046BDE810404F
:100CC0000023D1E7D21D22F00701D1E90023CBE7B1
:100CD0000000000030000000F0B40D460188090556
:100CE00002D5214C7C4402E01F4C7C440E34002190
:100CF00000F1240608E002F00F071209E75D42EA5E
:100D000003721B097754491C52EA0307F3D1027896
:100D10000023120704D5702D06D009B10223113427
:100D20002246F0BCFFF76BBC01231034F8E770B526
:100D300004460D4621461068FFF72FFC024629465F
:100D40002046BDE870400023C6E7D21D22F007030D
:100D5000D3E90023C0E70368126843F0200303606F
:100D60000823C3610023B7E768920000004870477A
:100D700070100020004870475010002030B5B0F1CE
:100D80000A024FEA900E71F100034EEA817EB0EB49
:100D90000E0061EB91014FEA101E4EEA017E10EB4E
:100DA0000E0041EB11114FEA102E4EEA016E10EBCE
:100DB0000E0041EB11214FEA104E4EEA014E10EBAE
:100DC0000E0041EB1141401841F100014FEAD00003
:100DD00040EA41704FEAD10110EB80054FEA8104EF
:100DE00044EA907444EB01046D1944EB0404521B73
:100DF000A3414FF0000348BF0A3200D530BD401C6C
:100E000041F1000130BD00002DE9F04F04460D46D0
:100E1000D21D22F0070089B0D0E90092484617465B
:100E2000394606F0EBFE0246F80F01D02D2307E00D
:100E30002068810701D52B2302E0202101EAC003AD
:100E40008DF820300BB1012000E00020032A8246FB
:100E500001D0072A04DB2946204600F053F93DE182
:100E60002078800601D40D2500E0E569C7F30A5615
:100E70000D2D49DA00214FEA175B08464FF00000BC
:100E8000002F00F4400007DA00EB80004FF440012F
:100E900000EBD07001EA60008115012901DD4FF0FF
:100EA000FF3100224FEA850CBCF1180F06D3134620
:100EB000ACF118004FF08052C24003E04FF48013B1
:100EC00023FA0CF30CF10C0CBCF1200F04D3ACF1A1
:100ED000200C09FA0CF001E007FA0CF000294FF0A1
:100EE000004801DD18B90FE00ED140450CD319EBD5
:100EF00002095F4121B9404502D19F4329EA020915
:100F0000BBEB175F00D0761C2088000502D57B481C
:100F1000784402E079487844193808AA302302F866
:100F20000A30037C0AF10101002E0AF1020A53542F
:100F30006A4602DC4FF0300101E04FF031014FF022
:100F400001088DF8001002D0A6F2FF3603E059EA3E
:100F5000470100D06A4E002D02DC2178090704D534
:100F60004FF002082E218DF80110C44600210BE03D
:100F7000C7F303433F01C35C491C6D1E02F80830F0
:100F8000052908F1010801DA002DF1DC00210CE04F
:100F900000EB1973491C1B786D1E082902F80830F4
:100FA0004FEA091908F1010801DA002DF0DC217877
:100FB000890602D514E0A8F10108E04505DD02EB41
:100FC000080111F8011C3029F5D0B8F1000F07DD38
:100FD00002EB080111F8011C2E2901D1A8F101082A
:100FE000002D05DD3E2102F808106D1E08F10108F4
:100FF000407C002E02F8080008F1010804DA2D20D8
:10100000764202F8080002E02B2002F808000A21CC
:101010004FF47A70864208F101080BDB96FBF0F37F
:10102000303302F8083096FBF0F308F1010800FBBA
:10103000136601E0642E0CDB642096FBF0F3303382
:1010400002F8083096FBF0F308F1010800FB136684
:1010500001E00A2E06DB96FBF1F0303002F80800C2
:1010600008F1010896FBF1F001FB1060303002F846
:101070000800A16908F1010808EB050202EB0A006B
:10108000081AA0612078C00602D42046FFF746F96E
:10109000216A08AE01EB0A00206204E0D4E90121D4
:1010A00016F8010B9047BAF1010AF7D22078C00672
:1010B00002D52046FFF732F96E4609E016F8010B1B
:1010C0003E280FD0D4E901219047206A401C2062BD
:1010D000B8F10108F2D22046FFF736F909B0032033
:1010E000BDE8F08F206A2844206203E0D4E90121A2
:1010F000302090476D1EEBD3F8E7000017910000F9
:1011000002FCFFFF2DE9F0411F460446032601685B
:10111000072A01F4006004DB08B116A505E016A556
:1011200003E008B115A500E015A521F0100020602E
:10113000A069C01EA0610FB1401EA0612046FFF74C
:10114000EDF84FB1D4E9012138469047206A401CA0
:101150002062C01C206206E0206AFAE7D4E901217F
:1011600015F8010B9047761EF8D22046FFF7ECF8F1
:10117000BDE8F0814E414E006E616E00494E460062
:10118000696E660010B5436913B1AFF3008001E0EA
:10119000FFF70CFA012010BD127800F124010A704B
:1011A00000224A700122EDE711684FF0FF32E9E7B3
:1011B00010B5436913B1AFF3008001E0FFF7B8FC4D
:1011C000012010BD128800F1240182840022C28413
:1011D0000122EDE711684FF0FF32E9E72DE9F04712
:1011E000814616468AB0334878440DC88DE80D0014
:1011F00030487844801C03AC0DC884E80D0041F6EB
:101200009B300844372190FBF1F290FBF1F5A5F1FA
:10121000800501FB12041B3C02D56442012000E062
:101220000020DFF890A080460027FA44AAF1BE0A09
:101230000DE0E00709D03246684607EB47010AEBAC
:10124000810100F05DFB8DE8070064107F1C002C1D
:10125000EFD1184F7F44AC3F18E0E80714D007EBFC
:1012600004100DF1180A90E80E008AE80E00C0681C
:10127000F04201D198190890324606A903A800F05F
:101280003FFB03AB83E807006D10641C002DE4D125
:1012900032466946B8F1000F03A802D000F01CFBEB
:1012A00001E000F02DFBC9E90001C9F808200AB0EF
:1012B000BDE8F087D08E000070B516460C46054696
:1012C00000F044F8036893F80101012806D0FF2CD0
:1012D0000FD8185D68B101202C7070BDD3F80701DC
:1012E0003246214603F2071303442846BDE8704006
:1012F00018474FF0FF3070BD004870475010002075
:101300007546FFF7F9FFAE4605006946534620F0E3
:101310000700854618B020B5FEF7DCFFBDE8204089
:101320004FF000064FF000074FF000084FF0000BA1
:1013300021F00701AC46ACE8C009ACE8C009ACE854
:10134000C009ACE8C0098D467047000010B5FFF732
:101350000DFD001D10BD00BF297900000446AFF34C
:1013600000802046FEF7A1FF4FF0013C50F8042B0F
:1013700051F8043B9A4221D1A2EB0C03934313EAA8
:10138000CC1317D150F8042B51F8043B9A4215D1D5
:10139000A2EB0C03934313EACC130BD150F8042BAC
:1013A00051F8043B9A4209D1A2EB0C03934313EA90
:1013B000CC13DBD04FF00000704700BFD01A01BA49
:1013C000B1FA81F101F0180122FA01F0CB40C1F12C
:1013D0002001DBB2C0B2C01A2CFA01F3D11A91433A
:1013E00011EAC311E6D1704701491820ABBEFEE7F0
:1013F0002600020070475FEA400C08BF91F0000F22
:101400004FEA8C234FEAC12243EA51514FEA1C5064
:1014100018BF00F5F0404FEA300018BF41F000411E
:101420005FEA6C5C00F02980BCF1FF3F08BF40F030
:1014300080407047130C06BF12044FF0100C4FF0A1
:10144000000C130E04BF12020CF1080C130F04BFA2
:1014500012010CF1040C930F04BF92000CF1020C6A
:10146000D30F04BF52000CF1010C11464FF00002E3
:10147000A0F11F00A0EB0C00704711F0004F08BF57
:10148000704731F000413FF4D5AF0B0C06BF0904A3
:101490004FF0100C4FF0000C0B0E04BF09020CF1C2
:1014A000080C0B0F04BF09010CF1040C8B0F04BFD7
:1014B00089000CF1020CCB0F04BF49000CF1010CA8
:1014C000CCF12003A0EB0C0022FA03F302FA0CF299
:1014D00041EA030100F10100704720F07F4C80EAEF
:1014E000030023F07F47ACEB070303F57C5300F0C8
:1014F000004003F1FF032DE980494FEA154B09B481
:101500004FEA144325EA0B4E24EA03480FF204265F
:1015100006EB132749083E785FEA320203FB0667B1
:10152000C7F5000707FB06F64FEA54374FEAD646E1
:1015300006F1020607FB066CCCF1005C4FEA1C4783
:101540002CEA074C07FB06F40CFB06F504EB1546EA
:101550004FEA961634BF00204FF000404FEAD137D3
:1015600006FB07FC4FEA1C4C0CFB0BF7D21B03FBE2
:101570000CF761EB07010CFB0EF7B0EB074072EBC9
:1015800017420CFB08F734BFA2EB0742B2EB07424D
:1015900061EB17414FEA0C444FEA910706FB07FC49
:1015A0004FEA1C4C0CFB0BF7B0EBC74072EB573209
:1015B00003FB0CF734BFA2EBC742B2EBC74261EBAF
:1015C00057310CFB0EF7B0EBC70072EB57720CFBF8
:1015D00008F734BFA2EBC702B2EBC70261EB577149
:1015E000039F4FEA816141EA921104EBCC044FEA78
:1015F000D1374FEA826206FB07FC42EA90124FEABB
:1016000080604FEA1C4C0CFB0BF7D21B03FB0CF762
:1016100061EB07010CFB0EF7B0EB074072EB1742D2
:101620000CFB08F734BFA2EB0742B2EB074261EBB9
:1016300017414FEA8C554FEA910704EB9C2406FBB7
:1016400007FC4FEA1C4C0CFB0BF7B0EBC74072EBEE
:10165000573203FB0CF734BFA2EBC742B2EBC742D1
:1016600061EB57310CFB0EF7B0EBC70072EB577212
:101670000CFB08F734BFA2EBC702B2EBC70261EB69
:10168000577115EB4C254FEA816141EA92114FEAFF
:1016900082624FEAD13742EA901206FB07FC44F11E
:1016A00000044FEA80604FEA1C4C0CFB0BF7D21B86
:1016B00003FB0CF761EB07010CFB0EF7B0EB0740E7
:1016C00072EB17420CFB08F734BFA2EB0742B2EBF8
:1016D000074261EB174115EB1C154FEA813141EAD6
:1016E00092414FEA823242EA90424FEA80304FEA1A
:1016F0000C7644F1000448EA03434EEA0B484FF0ED
:10170000000EB2EB080C71EB030724BF62463946AA
:101710004EEB0E0E4FF0000B0018524149414BEBBF
:101720000B0BB2EB080C71EB03077BF1000B24BF32
:10173000624639464EEB0E0E4FF0000B0018524138
:1017400049414BEB0B0BB2EB080C71EB03077BF140
:10175000000B24BF624639464EEB0E0E51EA0207DB
:1017600018BF46F0010616EB0E7655F1000254F153
:10177000000103D5BDE88901BDE80088BDE8890105
:10178000BDE80048B619524141EB0101A3F1010344
:10179000704780807F7E7D7C7B7A797877767675DE
:1017A0007473727171706F6E6E6D6C6C6B6A6A6956
:1017B0006868676666656464636362616160605FF0
:1017C0005F5E5E5D5D5C5C5B5B5A5A595958585769
:1017D00057565655555554545353525252515150D1
:1017E00050504F4F4F4E4E4D4D4D4C4C4C4B4B4B24
:1017F0004A4A4A494949484848474747474646466A
:1018000045454544444444434343434242424241A4
:101810004141002B26D4770021D01CB54FEA370771
:1018200003B44FF010004FF010014FF000000FBC58
:10183000BDE810400BF1010BBBF1010F08BF5FEADF
:10184000170722BF12F1010211F101014FF000410F
:1018500043F1000300F0004043EA00007047F9D371
:101860005708DAE746EA064613F1400F4FEA1646F4
:101870001FDD13F1200FDFBF16430A46002120337E
:101880005B42C8D0C3F1200746EA064602FA07F7D2
:101890004FEA164646EA0706C3F1200722FA03F28A
:1018A00001FA07F721FA03F14FF0000342EA0702B9
:1018B000B1E746EA020646EA06464FEA164646EA17
:1018C0000106BCBF46EA0646360C4FF000034FF057
:1018D00000024FF000019EE72DE9C048934630B466
:1018E00091E8380007C831EA400C48BF34EA430C9D
:1018F00003D5FFF7F2FDFFF78CFFF0BCBDE80088D1
:101900002DE9C048934630B491E8380007C810F07C
:10191000804F08BF13F0804F03D100F005F8FFF7A8
:1019200078FFF0BCBDE8008820F07F4780EA030024
:1019300023F07F4C07EB0C03A3F57C5300F0004031
:10194000A3F1FE0392F0000F00F0B38095F0000FBA
:1019500000F077802DE901494FEA11404FEA144623
:1019600021EA004800FB06FC24EA064708FB06F6CD
:1019700007FB08F800FB07F718EB06484CEB164C82
:101980004FEA124B18EB07484FEA15464CEB17404D
:1019900022EA0B4E0BFB06FC25EA06470EFB06F679
:1019A00007FB0EFE0BFB07F71EEB064E4CEB164C2F
:1019B0004FF000061EEB074E4CEB174B18EB0B08D5
:1019C00040F1000018EB0E0B58EB000840F100004E
:1019D0008F1A4FF000013CBFC943661B14BFB5EB23
:1019E000040C00213CBFC943F61B4FEA17444EEAE2
:1019F0008E0E27EA04454FEA1C4704FB07622CEAD7
:101A0000074C05FB07F70CFB05F604FB0CFC16EB7B
:101A1000074642EB174216EB0C4642EB1C421BEB0F
:101A2000060658EB0202414146EA9E0601D5BDE892
:101A30000189B619524141EB0101A3F10103BDE84F
:101A400001894FEA14454FEA114724EA054621EA85
:101A5000074C05FB07F406FB07F70CFB06F105FB3B
:101A60000CFC11EB074144EB17444FEA124711EB12
:101A70000C4144EB1C4422EA074C05FB07F206FB31
:101A800007F70CFB06F605FB0CFC16EB074642EBD2
:101A9000174216EB0C4642EB1C456A1854F1000144
:101AA00048BF7047B619524141EB0101A3F1010350
:101AB000704795F0000F37D04FEA11424FEA1447B4
:101AC00021EA024624EA074C02FB07F106FB07F76E
:101AD0000CFB06F402FB0CFC14EB074441EB174132
:101AE0004FEA154714EB0C4441EB1C4125EA074C27
:101AF00002FB07F506FB07F70CFB06F602FB0CFCE6
:101B000016EB074645EB174516EB0C4645EB1C421A
:101B1000121951F1000148BF7047B619524141EB0B
:101B20000101A3F1010370474FEA14454FEA114741
:101B300024EA054621EA074C05FB07F106FB07F7F7
:101B40000CFB06F24FF0000605FB0CFC12EB074203
:101B500041EB174112EB0C4251EB1C4148BF70475F
:101B6000921841EB0101A3F10103704708B500226F
:101B70000092044A0092009A02440092009A116076
:101B800008BD0000006C00402DE9FC5F04460D46D6
:101B900016461F46DDF830803B4632462946204631
:101BA000CDF8008005F0F8FF6E480068B0F9040039
:101BB000A0F57A706C490860084600686B490860B7
:101BC0006B49086005F048FF05F0C6FE05F046FECB
:101BD00064480068B0F90A00A0F57A700190019895
:101BE00005F08AFD63480068807870B15F4800683E
:101BF00007F038FF82466048C169504607F0AEFDE5
:101C0000814607F0F7FE5949086056480068B0F968
:101C10000400B0F5966F7DDD564800680078002816
:101C200078D05649606807F031FF7DD2534920686B
:101C300007F02CFF78D25249606808F027F873D279
:101C40004F49206808F022F86ED24848006807F033
:101C5000F1FE00904B48C169009808F053F88346A4
:101C60004948C169584607F079FD82464748C1692D
:101C7000504608F047F8814607F0A0FE4449086046
:101C80003A48006807F0D6FE00903E48C1690098C7
:101C900007F064FD83463C48C169584607F05EFD85
:101CA00082463A48C169504607F058FD814607F020
:101CB00085FE384908602D48006807F0BBFE00909B
:101CC0003048C169009807F049FD83462E48C16934
:101CD000584608F017F882462C48C169504608F06B
:101CE00011F8814607F06AFE2B4908601F4800681A
:101CF00007F0A0FE00902348C169009808F002F8A0
:101D000083462148C169584607F0FCFF82461F48B8
:101D1000C16900E008E0504607F020FD814607F069
:101D20004DFE1E49086011E00020A0601C490860BB
:101D30001C4908601C4908601C4908601449086077
:101D4000144908601449086014490860134803687E
:101D5000114802680F4801680D48006803F0B2FAA4
:101D6000BDE8FC9FF401002000020020FC010020DF
:101D700010020020F8010020840E002000007042B4
:101D8000000070C2240E0020440E0020640E0020CB
:101D9000CC010020D0010020D4010020D801002077
:101DA000E0010020DC010020E4010020E801002027
:101DB00010B5022000F014F810B1012000F002F874
:101DC00010BD000000F0805111B10349086001E02E
:101DD00002494860704700000404024000000240CD
:101DE00001460020002201F0805313B1054B1A6810
:101DF00001E0054B1A6802EA01030BB1012000E083
:101E000000207047000402400000024010B5454821
:101E1000007B20B100204349087300F017FE4148C1
:101E2000407B20B100203F49487300F075FE3D48DB
:101E3000807B20B100203B49887300F0F9FE3948CF
:101E4000807838B13748C07B20B100203549C8734D
:101E500000F0BAFF3348007828B1002031490870FB
:101E600002F0C4F805E02F48C07810B100202D49D9
:101E7000C8702C48407820B100202A49487002F0F0
:101E800007F82848407928B100202649487101F018
:101E90001DF92BE02348807928B100202149887161
:101EA00001F020FA22E01F48C07928B100201D4926
:101EB000C87101F023FB19E01A48007A28B100200C
:101EC0001849087201F02CFC10E01648407A28B13D
:101ED00000201449487201F033FD07E01148807A70
:101EE00020B100200F49887201F03AFE0D48807839
:101EF00038B10D48807820B100200A49887001F07F
:101F0000F1FE0848007920B100200649087101F06F
:101F10007DF80448C07A20B100200249C87200F060
:101F2000D3FF10BD2A0D00201A0D002003B583B089
:101F30000020029001900AE001990398415C029808
:101F40000844C0B202900198401CC0B201900498AD
:101F5000401E01998842EFDCDDE90301084410F8D6
:101F6000011C0298814201D005B000BD03980078A1
:101F7000AA2803D103984078AF2800D0F4E703984B
:101F80008078012814D103980079012801D102F04A
:101F9000F7FF03980079022801D102F0F7FF0398B8
:101FA0000079032803D102F0EBFF02F0EFFF00BF3E
:101FB00003988078022811D103980079012806D16E
:101FC000FE4948718871C871087248728872039816
:101FD0000079022802D10120F8490871039880781D
:101FE00010287CD103980079000200B20399497946
:101FF0000843009007F01EFDF149019007F01CFC1A
:10200000F049086003988079000200B20399C97909
:102010000843009007F00EFDEB49019007F00CFC1F
:10202000E84988600398007A000200B20399497A6F
:102030000843009007F0FEFCE149019007F0FCFB2B
:10204000E04908610398807A000200B20399C97AD6
:102050000843009007F0EEFCD949019007F0ECFB33
:10206000DA4908600398007B000200B20399497BBB
:102070000843009007F0DEFCD349019007F0DCFB39
:10208000D24988600398807B000200B20399C97B23
:102090000843009007F0CEFCC949019007F0CCFB43
:1020A000CA4908610398007C000200B20399497C88
:1020B0000843009007F0BEFCC149019007F0BCFB4B
:1020C000C34908600398807C000200B20399C97C70
:1020D0000843009007F0AEFCB949019000E01CE015
:1020E00007F0AAFBBA4988600398007D000200B29D
:1020F0000399497D0843009007F09CFCB04901908A
:1021000007F09AFBB2490861029800F077FC0120C1
:1021100000F050FB0120A9494871039880781128EC
:102120007ED103980079000200B2039949790843EF
:10213000009007F07FFCA449019007F07DFBA549C2
:10214000086003988079000200B20399C9790843B6
:10215000009007F06FFC9C49019007F06DFB9D49D2
:1021600088600398007A000200B20399497A084314
:10217000009007F05FFC9449019007F05DFB9549E2
:1021800008610398807A000200B20399C97A084373
:10219000009007F04FFC8C49019007F04DFB8E49F1
:1021A00008600398007B000200B20399497B084352
:1021B000009007F03FFC8449019007F03DFB864901
:1021C00088600398807B000200B20399C97B0843B2
:1021D000009007F02FFC7C49019007F02DFB7E4911
:1021E00008610398007C000200B20399497C08430F
:1021F000009007F01FFC7249019007F01DFB774922
:1022000008600398807C000200B20399C97C0843EF
:10221000009007F00FFC6A49019007F00DFB00E009
:1022200017E06E4988600398007D000200B20399B0
:10223000497D0843009007F0FDFB6149019007F0DC
:10224000FBFA6649086101205C498871029800F038
:10225000D5FB0398807812287DD10398007900027D
:1022600000B2039949790843009007F0E3FB4FF06F
:102270007E51019007F0E0FA59490860039880798F
:10228000000200B20399C9790843009007F0D2FB1D
:102290004FF07E51019007F0CFFA514988600398C2
:1022A000007A000200B20399497A0843009007F0CF
:1022B000C1FB4FF07E51019007F0BEFA484908611A
:1022C0000398807A000200B20399C97A084300900B
:1022D00007F0B0FB4349019007F0AEFA42490860AD
:1022E0000398007B000200B20399497B08430090E9
:1022F00007F0A0FB3249019007F09EFA3A49886046
:102300000398807B000200B20399C97B08430090C8
:1023100007F090FB4FF07E51019007F08DFA3249A3
:1023200008610398007C000200B20399497C0843CD
:10233000009007F07FFB4FF07E51019007F07CFA90
:102340002A4908600398807C000200B20399C97C86
:102350000843009000E022E007F06CFB4FF07E5154
:10236000019007F069FA214988600398007D000216
:1023700000B20399497D0843009007F05BFB4FF0E2
:102380007E51019007F058FA1849086101200B4965
:10239000C871029800F032FB012000F00BFA03989C
:1023A000807813287DD103980079000200B2039948
:1023B00049790843009007F03DFB19E02A0D002001
:1023C0000000C842240E002000007A44440E002081
:1023D000640E0020840E0020A40E0020C40E0020F5
:1023E000E40E002000401C46040F0020240F0020B3
:1023F0004FF07E51019007F01FFAE2490860039800
:102400008079000200B20399C9790843009007F06F
:1024100011FB4FF07E51019007F00EFAD949886008
:102420000398007A000200B20399497A08430090A9
:1024300007F000FB4FF07E51019007F0FDF9D14904
:1024400008610398807A000200B20399C97A0843B0
:10245000009007F0EFFA4FF07E51019007F0ECF991
:10246000C94908600398007B000200B20399497BC8
:102470000843009007F0DEFA4FF07E51019007F01C
:10248000DBF9C14988600398807B000200B20399A0
:10249000C97B0843009007F0CDFA4FF07E510190C0
:1024A00000E039E007F0C8F9B74908610398007CFB
:1024B000000200B20399497C0843009007F0BAFA81
:1024C0004FF07E51019007F0B7F9B04908600398CA
:1024D000807C000200B20399C97C0843009007F099
:1024E000A9FA4FF07E51019007F0A6F9A74988603C
:1024F0000398007D000200B20399497D08430090D3
:1025000007F098FA4FF07E51019007F095F99F4936
:102510000861029800F072FA0398807814287DD13F
:1025200003980079000200B20399497908430090AA
:1025300007F080FA4FF07E51019007F07DF9944941
:10254000086003988079000200B20399C9790843B2
:10255000009007F06FFA4FF07E51019007F06CF990
:102560008B4988600398007A000200B20399497A87
:102570000843009007F05EFA4FF07E51019007F09B
:102580005BF9834908610398807A000200B20399DD
:10259000C97A0843009007F04DFA4FF07E51019040
:1025A00007F04AF97B4908600398007B000200B2FB
:1025B0000399497B0843009007F03CFA4FF07E51A5
:1025C000019007F039F9734988600398807B000215
:1025D00000B20399C97B0843009007F02BFA4FF033
:1025E0007E51019007F028F96A4908610398007C40
:1025F000000200B20399497C0843009007F01AFAE0
:102600004FF07E51019007F017F963490860039875
:10261000807C000200B20399C97C00E01EE0084300
:10262000009007F007FA4FF07E51019007F004F98F
:10263000594988600398007D000200B20399497DE2
:102640000843009007F0F6F94FF07E51019007F033
:10265000F3F851490861029800F0D0F903988078A6
:10266000152865D103980079000200B203994979D1
:102670000843009007F0DEF94FF07E51019007F01B
:10268000DBF84649086003988079000200B203999C
:10269000C9790843009007F0CDF94FF07E510190C1
:1026A00007F0CAF83D4988600398007A000200B23A
:1026B0000399497A0843009007F0BCF94FF07E5126
:1026C000019007F0B9F8354908610398807A000253
:1026D00000B20399C97A0843009007F0ABF930497A
:1026E000019007F0A9F82F4908600398007B0002C9
:1026F00000B20399497B0843009007F09BF92849F1
:10270000019007F099F8274988600398807B0002C0
:1027100000B20399C97B0843009007F08BF9204968
:10272000019007F089F81F490861029800F066F9E6
:102730000398807816281FD103980079000200B210
:10274000039949790843009007F074F916490190FC
:1027500007F072F81549086003988079000200B20A
:102760000399C9790843009007F064F90E49019074
:1027700007F062F80E49086001F0FAFC00BFFFF7AD
:10278000F3BB0000440F0020640F0020840F0020E2
:10279000A40F0020C40F0020E40F0020041000202C
:1027A0000000C8422410002000007A449C01002050
:1027B000A001002070B504468548C06940F08050F3
:1027C0008349C8610846C06940F00060C86181481B
:1027D000006840F480707F490860012C04D0022C0E
:1027E0007ED0032C7DD1D9E07B4908687B4907F076
:1027F00081F9064607F0FEF885B229460420FFF766
:10280000B5F975498868764907F074F9064607F006
:10281000F1F885B229460820FFF7A8F96E49086942
:102820006E4907F067F9064607F0E4F885B22946D5
:102830000C20FFF79BF96B490868684907F05AF9C3
:10284000064607F0D7F885B229461020FFF78EF923
:1028500064498868624907F04DF9064607F0CAF8EE
:1028600085B229461420FFF781F95E4908695B4962
:1028700007F040F9064607F0BDF885B22946182052
:10288000FFF774F958490868544907F033F90646C8
:1028900007F0B0F885B229461C20FFF767F95249C6
:1028A00088684E4907F026F9064607F0A3F885B276
:1028B00029462020FFF75AF94B490869474907F094
:1028C00019F9064607F096F885B229462420FFF745
:1028D0004DF946490868424907F00CF9064601E0FF
:1028E00049E06EE007F086F885B229462820FFF718
:1028F0003DF93E498868394907F0FCF8064607F07B
:1029000079F885B229464020FFF730F93749086940
:10291000324907F0EFF8064607F06CF885B2294611
:102920004420FFF723F9324908682C4907F0E2F800
:10293000064607F05FF885B229464820FFF716F9EA
:102940002B498868254907F0D5F8064607F052F864
:1029500085B229464C20FFF709F9254908691F4926
:1029600007F0C8F8064607F045F885B2294650201A
:10297000FFF7FCF825E01F48008881B25420FFF7DC
:10298000F5F81C48408881B25820FFF7EFF8194845
:10299000808881B25C20FFF7E9F812E016480088D1
:1029A00081B26020FFF7E2F81348408881B26420CA
:1029B000FFF7DCF81048808881B26820FFF7D6F86E
:1029C00000BF00BF0121BC20FFF7D0F870BD0000A0
:1029D0000010024000700040240E00200000C84299
:1029E00000007A44440E0020640E0020840E002073
:1029F000C40E0020F2000020EC00002031B5AA2017
:102A0000104908704870F02088700320C870BA2000
:102A100008719DF8010048719DF80000887100243C
:102A2000002005E00749095C2144CCB2411CC8B232
:102A30000728F7DB0348C47108220146024803F067
:102A40002FFC38BD3A0D00200048004038B5002466
:102A5000AA222146641C2B4842542146641C42543D
:102A6000F1222146641C425400222146641C425437
:102A70002548B0F9000000909DF801202146641C13
:102A8000204842549DF800202146641C42541F48AF
:102A9000B0F9000000909DF801202146641C1948FF
:102AA00042549DF800202046611CCCB215490A54BE
:102AB0001748B0F9000000909DF801202046611CE5
:102AC000CCB210490A549DF800202046611CCCB2BB
:102AD0000C490A54201FC8700025002005E0094950
:102AE000095C2944CDB2411CC8B2A042F7DB2046A4
:102AF000611CCCB203490D542246064803F0D0FBBA
:102B000038BD00003A0D00204C0100205201002089
:102B1000580100200048004038B50024AA22214670
:102B2000641C3E4842542146641C4254F222214611
:102B3000641C425400222146641C425438480068F8
:102B400000909DF803202146641C344842549DF8AF
:102B500002202146641C42549DF801202146641C39
:102B600042549DF800202146601CC4B22B484254B8
:102B70002C48006800909DF803202046611CCCB2D0
:102B800026490A549DF802202046611CCCB22349F4
:102B90000A549DF801202046611CCCB21F490A54FA
:102BA0009DF800202046611CCCB21C490A541E48E6
:102BB000006800909DF803202046611CCCB21749A4
:102BC0000A549DF802202046611CCCB213490A54D5
:102BD0009DF801202046611CCCB210490A549DF892
:102BE00000202046611CCCB20C490A54201FC8703A
:102BF0000025002005E00949095C2944CDB2411CAB
:102C0000C8B2A042F7DB2046611CCCB203490D5488
:102C10002246064803F044FB38BD00003A0D002070
:102C2000980000209C000020A000002000480040E8
:102C300038B50024AA222146641C59484254214632
:102C4000641C4254F3222146641C42540022214653
:102C5000641C42545348008800B200909DF8012043
:102C60002146641C4E4842549DF800202146641CB5
:102C700042544D48008800B200909DF80120214642
:102C8000641C474842549DF800202046611CCCB289
:102C900043490A544548008800B200909DF801203D
:102CA0002046611CCCB23E490A549DF800202046C3
:102CB000611CCCB23A490A543D48008800B20090E9
:102CC0009DF801202046611CCCB235490A549DF87C
:102CD00000202146601CC4B2314842543548008867
:102CE00000B200909DF801202046611CCCB22C4916
:102CF0000A549DF800202046611CCCB228490A5491
:102D00002D49C86906F05AFE00B200909DF80120D6
:102D10002046611CCCB222490A549DF8002020466E
:102D2000611CCCB21E490A542448B0F9000000903E
:102D30009DF801202046611CCCB219490A549DF827
:102D400000202046611CCCB215490A541C4800885A
:102D500000B200909DF801202046611CCCB21049C1
:102D60000A549DF800202046611CCCB20C490A543C
:102D7000201FC8700025002005E00949095C29448E
:102D8000CDB2411CC8B2A042F7DB2046611CCCB2D8
:102D900003490D5422460B4803F082FA38BD000067
:102DA0003A0D00206200002064000020FC01002099
:102DB000000200205C000020840E00200C02002095
:102DC000100200200048004070B50024AA222146CD
:102DD000641C3A4842542146641C4254F422214661
:102DE000641C425400222146641C425434484279F7
:102DF0002146641C31484254314802792146641C02
:102E00002E4842542E48C2792146641C2B48425415
:102E10002B4882792046611CCCB228490A542848A4
:102E200042782046611CCCB224490A5424480278D6
:102E30002046611CCCB221490A542148C278204660
:102E4000611CCCB21D490A541D4882782046611C81
:102E5000CCB21A490A541A48427A2046611CCCB2B4
:102E600016490A541648027A2046611CCCB213490E
:102E70000A541348C27A2046611CCCB20F490A5446
:102E80000F48827A2046611CCCB20C490A54201F9C
:102E9000C8700025002005E00849095C2944CDB22E
:102EA000411CC8B2A042F7DB2046611CCCB20349EA
:102EB0000D542246034803F0F3F970BD3A0D00208B
:102EC000060D00200048004070B50024AA222146CB
:102ED000641C484842542146641C42540622214640
:102EE000641C425400222146641C425442484278E9
:102EF0002146641C3F4842543F4802782146641CE6
:102F00003C4842543D4842782146641C394842546A
:102F10003A4802782046611CCCB236490A543848F7
:102F200042782046611CCCB232490A5434480278B7
:102F30002046611CCCB22F490A54324842782046C0
:102F4000611CCCB22B490A542E4802782146601CE1
:102F5000C4B228484254284842782046611CCCB26A
:102F600024490A54244802782046611CCCB22149E5
:102F70000A54214842782046611CCCB21D490A54AB
:102F80001D4802782046611CCCB21A490A541A48DE
:102F900042782046611CCCB216490A541648027881
:102FA0002046611CCCB213490A541348427820468B
:102FB000611CCCB20F490A540F4802782046611CAC
:102FC000CCB20C490A54201FC8700025002005E02F
:102FD0000849095C2944CDB2411CC8B2A042F7DBC4
:102FE0002046611CCCB203490D542246064803F02A
:102FF00057F970BD3A0D0020CC010020D00100200F
:10300000D4010020D801002000480040F8B5002479
:10301000AA222146641C284842542146641C42547A
:1030200016222146641C425400222146641C42544C
:1030300022492348006806F05DFD064606F0BEFC06
:1030400000B200909DF801202146641C1A484254A9
:103050009DF800202146641C425418491948006814
:1030600006F048FD064606F0A9FC00B200909DF867
:1030700001202146641C104842549DF8002020463F
:10308000611CCCB20C490A54201FC87000250020D6
:1030900005E00949095C2944CDB2411CC8B2A042EF
:1030A000F7DB2046611CCCB203490D54224606488A
:1030B00003F0F6F8F8BD00003A0D002000007A4455
:1030C0009C010020A001002000480040F8B5002429
:1030D000AA222146641C7C4842542146641C425466
:1030E00010222146641C425400222146641C425492
:1030F00076490868764906F0FDFC064606F05EFC57
:1031000000B200909DF801202146641C6E48425494
:103110009DF800202146641C42546C4988686D4922
:1031200006F0E8FC064606F049FC00B200909DF867
:1031300001202146641C644842549DF8002020462A
:10314000611CCCB260490A5460490869604906F0C4
:10315000D1FC064606F032FC00B200909DF801203A
:103160002046611CCCB258490A549DF800202046E4
:10317000611CCCB254490A5457490868544906F0B6
:10318000B9FC064606F01AFC00B200909DF801203A
:103190002046611CCCB24C490A549DF800202146BF
:1031A000601CC4B2484842544B498868494906F0FB
:1031B000A1FC064606F002FC00B200909DF801203A
:1031C0002046611CCCB240490A549DF8002020469C
:1031D000611CCCB23C490A543F4908693C4906F09D
:1031E00089FC064606F0EAFB00B200909DF801203B
:1031F0002046611CCCB234490A549DF80020214677
:10320000601CC4B23048425434490868304906F062
:1032100071FC064606F0D2FB00B200909DF801203A
:103220002046611CCCB228490A549DF80020204653
:10323000611CCCB224490A5428498868244906F004
:1032400059FC064606F0BAFB00B200909DF801203A
:103250002146601CC4B21C4842549DF80020204600
:10326000611CCCB218490A541C490869184906F077
:1032700041FC064606F0A2FB00B200909DF801203A
:103280002046611CCCB210490A549DF8002020460B
:10329000611CCCB20C490A54201FC87000250020C4
:1032A00005E00949095C2944CDB2411CC8B2A042DD
:1032B000F7DB2046611CCCB203490D542246084876
:1032C00002F0EEFFF8BD00003A0D0020240E0020B1
:1032D0000000C84200007A44440E0020640E002022
:1032E00000480040F8B50024AA222146641C7C480E
:1032F00042542146641C425411222146641C42540B
:1033000000222146641C425476490868764906F03A
:10331000F1FB064606F052FB00B200909DF801203A
:103320002146641C6E4842549DF800202146641CCE
:1033300042546C4988686C4906F0DCFB064606F08E
:103340003DFB00B200909DF801202146641C6448BA
:1033500042549DF800202046611CCCB260490A54BA
:1033600060490869604906F0C5FB064606F026FB81
:1033700000B200909DF801202046611CCCB2584953
:103380000A549DF800202046611CCCB254490A54CE
:1033900056490868544906F0ADFB064606F00EFB98
:1033A00000B200909DF801202046611CCCB24C492F
:1033B0000A549DF800202146601CC4B2484842547B
:1033C0004A498868484906F095FB064606F0F6FA31
:1033D00000B200909DF801202046611CCCB240490B
:1033E0000A549DF800202046611CCCB23C490A5486
:1033F0003E4908693C4906F07DFB064606F0DEFAC8
:1034000000B200909DF801202046611CCCB23449E6
:103410000A549DF800202146601CC4B23048425432
:1034200033490868334906F065FB064606F0C6FADC
:1034300000B200909DF801202046611CCCB22849C2
:103440000A549DF800202046611CCCB224490A543D
:1034500027498868274906F04DFB064606F0AEFA74
:1034600000B200909DF801202146601CC4B21C48A7
:1034700042549DF800202046611CCCB218490A54E1
:103480001B4908691B4906F035FB064606F096FA0B
:1034900000B200909DF801202046611CCCB210497A
:1034A0000A549DF800202046611CCCB20C490A54F5
:1034B000201FC8700025002005E00949095C294447
:1034C000CDB2411CC8B2A042F7DB2046611CCCB291
:1034D00003490D542246084802F0E2FEF8BD000000
:1034E0003A0D0020840E002000007A44A40E002033
:1034F000C40E00200000C84200480040F8B5002477
:10350000AA222146641C7F4842542146641C42542E
:1035100012222146641C425400222146641C42545B
:10352000794908684FF07E5106F0E4FA064606F045
:1035300045FA00B200909DF801202146641C7148B4
:1035400042549DF800202146641C42546E4988680C
:103550004FF07E5106F0CEFA064606F02FFA00B282
:1035600000909DF801202146641C664842549DF855
:1035700000202046611CCCB262490A5462490869A5
:103580004FF07E5106F0B6FA064606F017FA00B282
:1035900000909DF801202046611CCCB259490A5484
:1035A0009DF800202046611CCCB256490A54574968
:1035B0000868574906F09EFA064606F0FFF900B281
:1035C00000909DF801202046611CCCB24D490A5460
:1035D0009DF800202146601CC4B24A4842544B4921
:1035E00088684C4906F086FA064606F0E7F900B20C
:1035F00000909DF801202046611CCCB241490A543C
:103600009DF800202046611CCCB23E490A543F4937
:1036100008694FF07E5106F06DFA064606F0CEF9C5
:1036200000B200909DF801202046611CCCB23549C3
:103630000A549DF800202146601CC4B2314842540F
:10364000354908684FF07E5106F054FA064606F0F8
:10365000B5F900B200909DF801202046611CCCB263
:1036600028490A549DF800202046611CCCB2254907
:103670000A54294988684FF07E5106F03BFA064605
:1036800006F09CF900B200909DF801202146601CD4
:10369000C4B21C4842549DF800202046611CCCB2A4
:1036A00018490A541C4908694FF07E5106F022FA65
:1036B000064606F083F900B200909DF801202046EE
:1036C000611CCCB20F490A549DF800202046611CB1
:1036D000CCB20C490A54201FC8700025002005E018
:1036E0000849095C2944CDB2411CC8B2A042F7DBAD
:1036F0002046611CCCB203490D542246074802F013
:10370000CFFDF8BD3A0D0020E40E0020040F00208C
:1037100000401C460000C842240F00200048004022
:10372000F8B50024AA222146641C80484254214650
:10373000641C425413222146641C42540022214638
:10374000641C42547A4908684FF07E5106F0D2F961
:10375000064606F033F900B200909DF8012021469C
:10376000641C724842549DF800202146641C425457
:103770006F4988684FF07E5106F0BCF9064606F0A6
:103780001DF900B200909DF801202146641C674895
:1037900042549DF800202046611CCCB263490A5473
:1037A000634908694FF07E5106F0A4F9064606F019
:1037B00005F900B200909DF801202046611CCCB2B2
:1037C0005A490A549DF800202046611CCCB2574942
:1037D0000A54584908684FF07E5106F08BF90646A6
:1037E00006F0ECF800B200909DF801202046611C24
:1037F000CCB24E490A549DF800202146601CC4B248
:103800004A4842544B4988684FF07E5106F072F99D
:10381000064606F0D3F800B200909DF8012020463D
:10382000611CCCB241490A549DF800202046611C1D
:10383000CCB23E490A543F4908694FF07E5106F028
:1038400059F9064606F0BAF800B200909DF801203A
:103850002046611CCCB235490A549DF8002021460F
:10386000601CC4B231484254334908684FF07E515D
:1038700006F040F9064606F0A1F800B200909DF867
:1038800001202046611CCCB228490A549DF8002032
:103890002046611CCCB225490A54274988684FF05C
:1038A0007E5106F027F9064606F088F800B200902F
:1038B0009DF801202146601CC4B21C4842549DF86A
:1038C00000202046611CCCB218490A541A490869E4
:1038D0004FF07E5106F00EF9064606F06FF800B282
:1038E00000909DF801202046611CCCB20F490A547B
:1038F0009DF800202046611CCCB20C490A54201FC0
:10390000C8700025002005E00849095C2944CDB2B3
:10391000411CC8B2A042F7DB2046611CCCB203496F
:103920000D542246054802F0BBFCF8BD3A0D0020BC
:10393000440F0020640F0020840F00200048004046
:10394000F8B50024AA222146641C8048425421462E
:10395000641C425414222146641C42540022214615
:10396000641C42547A4908684FF07E5106F0C2F850
:10397000064606F023F800B200909DF8012021468B
:10398000641C724842549DF800202146641C425435
:103990006F4988684FF07E5106F0ACF8064606F095
:1039A0000DF800B200909DF801202146641C674884
:1039B00042549DF800202046611CCCB263490A5451
:1039C000634908694FF07E5106F094F8064605F009
:1039D000F5FF00B200909DF801202046611CCCB29A
:1039E0005A490A549DF800202046611CCCB2574920
:1039F0000A54584908684FF07E5106F07BF8064695
:103A000005F0DCFF00B200909DF801202046611C0B
:103A1000CCB24E490A549DF800202146601CC4B225
:103A20004A4842544B4988684FF07E5106F062F88C
:103A3000064605F0C3FF00B200909DF80120204625
:103A4000611CCCB241490A549DF800202046611CFB
:103A5000CCB23E490A543F4908694FF07E5106F006
:103A600049F8064605F0AAFF00B200909DF8012033
:103A70002046611CCCB235490A549DF800202146ED
:103A8000601CC4B231484254334908684FF07E513B
:103A900006F030F8064605F091FF00B200909DF860
:103AA00001202046611CCCB228490A549DF8002010
:103AB0002046611CCCB225490A54274988684FF03A
:103AC0007E5106F017F8064605F078FF00B2009028
:103AD0009DF801202146601CC4B21C4842549DF848
:103AE00000202046611CCCB218490A541A490869C2
:103AF0004FF07E5105F0FEFF064605F05FFF00B275
:103B000000909DF801202046611CCCB20F490A5458
:103B10009DF800202046611CCCB20C490A54201F9D
:103B2000C8700025002005E00849095C2944CDB291
:103B3000411CC8B2A042F7DB2046611CCCB203494D
:103B40000D542246054802F0ABFBF8BD3A0D0020AB
:103B5000A40F0020C40F0020E40F00200048004004
:103B6000F8B50024AA222146641C59484254214633
:103B7000641C425415222146641C425400222146F2
:103B8000641C4254534908684FF07E5105F0B2FF5F
:103B9000064605F013FF00B200909DF80120214673
:103BA000641C4B4842549DF800202146641C42543A
:103BB000484988684FF07E5105F09CFF064605F0A5
:103BC000FDFE00B200909DF801202146641C404893
:103BD00042549DF800202046611CCCB23C490A5456
:103BE0003C4908694FF07E5105F084FF064605F018
:103BF000E5FE00B200909DF801202046611CCCB289
:103C000033490A549DF800202046611CCCB230494B
:103C10000A5431490868314905F06CFF064605F041
:103C2000CDFE00B200909DF801202046611CCCB270
:103C300027490A549DF800202046611CCCB2244933
:103C40000A5425498868254905F054FF064605F0C1
:103C5000B5FE00B200909DF801202046611CCCB258
:103C60001B490A549DF800202046611CCCB218491B
:103C70000A5419490869194905F03CFF064605F040
:103C80009DFE00B200909DF801202046611CCCB240
:103C90000F490A549DF800202046611CCCB20C4903
:103CA0000A54201FC8700025002005E00849095C5F
:103CB0002944CDB2411CC8B2A042F7DB2046611CAA
:103CC000CCB203490D542246054802F0E9FAF8BD8A
:103CD0003A0D002004100020241000200000C842EB
:103CE0000048004070B50024AA222146641C6448A4
:103CF00042542146641C425403222146641C42540F
:103D000000222146641C42545E4842792146641CCC
:103D10005B4842545B4802792146641C584842542F
:103D20005848C2792146641C554842545548827906
:103D30002146601CC4B25248425452484278204640
:103D4000611CCCB24E490A544E4802782046611C90
:103D5000CCB24B490A544B48C2782046611CCCB2C5
:103D600047490A54474882782046611CCCB24449EE
:103D70000A544448427A2046611CCCB240490A5455
:103D80004048027A2046611CCCB23D490A543D4865
:103D9000C27A2046611CCCB239490A543948827A29
:103DA0002046611CCCB236490A543648427B204634
:103DB000611CCCB232490A543248027B2046611C55
:103DC000CCB22F490A542F48C27B2046611CCCB28A
:103DD0002B490A542B48827B2046611CCCB22849CF
:103DE0000A542848427C2046611CCCB224490A541B
:103DF0002448027C2046611CCCB221490A54214847
:103E0000C27C2046611CCCB21D490A541D48827CEC
:103E10002046611CCCB21A490A541B48C27820467D
:103E2000611CCCB216490A54174882782046611C9E
:103E3000CCB213490A54144842782046611CCCB2D3
:103E40000F490A54104802782046611CCCB20C4934
:103E50000A54201FC8700025002005E00849095CAD
:103E60002944CDB2411CC8B2A042F7DB2046611CF8
:103E7000CCB203490D542246044802F011FA70BD39
:103E80003A0D0020060D00205C0000200048004094
:103E900070B50024AA222146641C4F484254214692
:103EA000641C425402222146641C425400222146D2
:103EB000641C4254494842782146641C4648425496
:103EC000464802782146641C434842544348C2781D
:103ED0002146641C40484254404882782046611C78
:103EE000CCB23D490A543D4842792046611CCCB2CF
:103EF00039490A54394802792046611CCCB2364906
:103F00000A54374842782046611CCCB232490A54E0
:103F1000334802782046611CCCB22F490A543048FD
:103F2000C2782146601CC4B22B4842542C48827887
:103F30002046611CCCB228490A54294842792046BF
:103F4000611CCCB224490A54254802792046611CE0
:103F5000CCB221490A54234842782046611CCCB295
:103F60001D490A541F4802782046611CCCB21A49E8
:103F70000A541C48C2782046611CCCB216490A5427
:103F8000184882782046611CCCB213490A5415485F
:103F900042792046611CCCB20F490A54114802797B
:103FA0002046611CCCB20C490A54201FC870002561
:103FB000002005E00849095C2944CDB2411CC8B283
:103FC000A042F7DB2046611CCCB203490D542246C7
:103FD000054802F065F970BD3A0D00204C01002043
:103FE0007001002076010020004800407CB50024CC
:103FF000AA222146641C574842542146641C42545C
:1040000001222146641C425400222146641C425471
:1040100051490868514905F06DFD064605F0CEFC92
:1040200000B201909DF805202146641C4948425485
:104030009DF804202146641C42544749486847497A
:1040400005F058FD064605F0B9FC00B201909DF858
:1040500005202146641C3F4842549DF80420214617
:10406000601CC4B23B4842543B4988683B4905F058
:1040700041FD064605F0A2FC00B201909DF8052026
:104080002146601CC4B2334842549DF804202046A7
:10409000611CCCB22F490A543148008800B201900B
:1040A0009DF805202046611CCCB22A490A549DF88F
:1040B00004202046611CCCB226490A5429480068D5
:1040C00000909DF803202046611CCCB221490A547F
:1040D0009DF802202046611CCCB21E490A549DF86E
:1040E00001202046611CCCB21A490A549DF80020D8
:1040F0002146601CC4B2174842541B48007830B9AE
:10410000A0222046611CCCB212490A5409E016488C
:104110000078012805D1A1222146601CC4B20D48B7
:104120004254201F0B49C8700025002005E00949B2
:10413000095C2944CDB2411CC8B2A042F7DB20463D
:10414000611CCCB203490D542246084802F0A8F87D
:104150007CBD00003A0D0020B40D00200000C842D4
:104160005C0000209800002026010020004800404C
:1041700010B510490968086805F03CFC84B204F0E9
:1041800001000D490870C4F340004870C4F380007A
:104190000873C4F3C0004873C4F300108873C4F3F9
:1041A0004010C873C4F380108870C4F3C010C87284
:1041B00010BD0000300100201A0D00201E481F49CC
:1041C000096808601E481F49096808601E481F49A1
:1041D000096808604FF081401D4908601D4908606A
:1041E0001D4908601D481A4988601A4988601C48A2
:1041F000194988601B4816490861164908611A4820
:104200001549086119481A4908601A4888601A480F
:1042100008614FF07E50194909680860184819492B
:10422000096808604FF0824017490968086014481F
:1042300016490968086070476F12833A34010020FC
:104240000000A0413801002000200A453C01002068
:10425000240E0020440E0020640E00206F12033B49
:104260000AD7A33BB81E053E9A99993ECDCCCC3DCA
:10427000840E00200AD7233CCDCC4C3E30010020D8
:10428000000020414001002044010020480100209E
:1042900030B5044604254FF4302000F06FF8054691
:1042A000042D17D10C48006940F002000A4908614A
:1042B00008464461006940F0400008614FF4302036
:1042C00000F05CF805460448006941F6FD710840BD
:1042D00001490861284630BD0020024004200B49F6
:1042E000C96801F0010109B101200EE00749C96860
:1042F00001F0040109B1022007E00449C96801F096
:10430000100109B1032000E00420704700200240A2
:104310000348006940F080000149086170470000CF
:104320000020024070B504460D460426F00200F05D
:1043300025F80646042E11D10948006940F0010015
:10434000074908612580F00200F018F80646044885
:10435000006941F6FE71084001490861304670BDB0
:104360000020024002480349486003484860704703
:104370002301674500200240AB89EFCD00B502461E
:104380000423FFF7ABFF034603E0FFF7A7FF034655
:10439000521E012B01D1002AF7D102B9052318467C
:1043A00000BD000030B50B46204CA46944F0040465
:1043B0001E4DAC61072812DDA0F10804A0B20F2148
:1043C0008400A1401A4C24688C43194D2C60194676
:1043D0008400A1402C4624680C432C6010E00F217F
:1043E0008400A140124C241F24688C43104D2D1FC3
:1043F0002C6019468400A1402C4624680C432C6094
:104400004AB10B4C08342468012585402C43084DE3
:1044100008352C6008E0064C1034256801248440DF
:104420002543034C1034256030BD000000100240CD
:10443000040801402DE9F041024600250026002035
:1044400000230024002791F803C00CF00F0591F819
:1044500003C00CF0100CBCF1000F03D091F802C0A7
:104460004CEA050591F800C0BCF1000F31D014688A
:1044700000202BE04FF0010C0CFA00F3B1F800C063
:104480000CEA03069E4220D183004FF00F0C0CFA79
:1044900003F7BC4305FA03FC4CEA040491F803C09B
:1044A000BCF1280F06D14FF0010C0CFA00FCC2F849
:1044B00014C00AE091F803C0BCF1480F05D14FF0D9
:1044C000010C0CFA00FCC2F810C0401C0828D1D323
:1044D0001460B1F800C0BCF1FF0F34DD5468002057
:1044E0002EE000F1080C4FF0010808FA0CF3B1F8C7
:1044F00000C00CEA03069E4221D183004FF00F0C4E
:104500000CFA03F7BC4305FA03FC4CEA040491F8E7
:1045100003C0BCF1280F05D100F1080C08FA0CF813
:10452000C2F8148091F803C0BCF1480F07D100F124
:10453000080C4FF0010808FA0CF8C2F81080401C73
:104540000828CED35460BDE8F0810000F0B50A46DB
:10455000002300240021002500F00046B6F1004FA2
:1045600002D11D4EF16901E01B4E7168C0F3034595
:1045700083B200F44016B6F5401F08D121F07061F7
:10458000154E766826F07066134F7E6012E000F4D8
:104590008016B6F5801F06D1032606FA05F4A1435E
:1045A00041F0706106E0460D360103FA06F6B143AC
:1045B00041F0706122B1460D360103FA06F631432F
:1045C00000F00046B6F1004F02D1034EF16101E068
:1045D000014E7160F0BD0000000001404161704774
:1045E0000161704710B5754800780B2860D007DC72
:1045F00078B101281CD002282FD00A2817D149E011
:104600000C2864D00D2874D0122871D01328F5D14D
:10461000A6E06B496B4800F00BF940B100226A48F4
:104620000178684800F025F9012064490870C3E06A
:104630006349491C634800F0FBF868B14FF48021DE
:10464000604800F0F5F838B1604801785D4800F046
:1046500019F9022059490870AEE05949C91C594856
:1046600000F0E6F8A8B15A4800785A49097888421B
:1046700008D159480178534800F004F90A204F49FD
:10468000087006E001214F4800F0BAF80B204B49B2
:10469000087091E04A49C91C4A4800F0C9F830B195
:1046A0000121484800F0B8F814204449087083E01C
:1046B0004349444800F0BCF840B101224248017827
:1046C000404800F0D6F80C203C49087074E03C49A2
:1046D000491C3C4800F0ACF840B14FF48021394807
:1046E00000F0A6F810B90D203449087064E000E02D
:1046F0001FE03349C91C334800F09AF8C0B1314873
:1047000000F0B3F835490968354A127888543448BE
:104710000078401C3249087032480078C01E097881
:10472000884205DC00202E490870122023490870B9
:1047300042E02349C91C234800F07AF878B10021EF
:10474000204800F051F81F4800F08FF825490978FB
:10475000C91E224A126850541320184908702BE0D1
:104760001749C91C174800F063F820B30121154808
:1047700000F03AF80121134800F04EF8114800F01B
:1047800074F818490978891E144A1268505400BFF9
:104790000B493F310B4800F04BF80028F8D009488E
:1047A00000F063F80F490978491E0C4A126850540A
:1047B00015200249087000BF00BF10BDE5000020B1
:1047C0000100001000540040E7000020E600002037
:1047D000E4000020E9000020D60C0020E0000020CA
:1047E000EB000020E800002021B1028842F4806242
:1047F000028004E002884FF6FF331A4002807047BF
:1048000021B1028842F48072028004E002884FF6EF
:10481000FF631A400280704721B1028842F400729F
:10482000028004E002884FF6FF531A40028070476E
:104830000CB50246002000230193009300920B0F59
:10484000019321F07F41019B1BB1009B1433009326
:1048500003E0090C009B18330093009B1B680B407E
:104860000BB1012000E000200CBD0146088AC0B257
:10487000704712B141F0010102E04FF6FE7319409A
:104880000182704701827047F8B506460F4614460C
:104890001D466B4601223946304601F077FA2DB1AC
:1048A0000120A0409DF80010084305E00120A04031
:1048B0009DF8001021EA0000C0B200909DF8002091
:1048C0003946304601F060FBF8BD2DE9F843074654
:1048D000884614461D46089E6B46012241463846CE
:1048E00001F054FA601CFF2101FA00F0C4F1080144
:1048F0002944491EFF220A41104300F0FF09C5F177
:10490000080006FA00F0C6B2C4F1070006419DF89F
:10491000000000EA090000909DF80000304300907C
:104920009DF800204146384601F02EFBBDE8F88393
:1049300007B59CB01D98B0F900000D9005F07AF80D
:104940001A901D98B0F902000D9005F073F81990B7
:104950001D98B0F904000D9005F06CF818901C98A3
:10496000B0F900000D9005F065F817901C98B0F9AB
:1049700002000D9005F05EF816901C98B0F9040046
:104980000D9005F057F81590FE49179805F0B2F80C
:104990001790FC49169805F0ADF81690F94915984E
:1049A00005F0A8F815901899084605F0A3F80890A6
:1049B0001999084605F09EF806901A99084605F0E0
:1049C00099F80590069904F0C9FE0790089904F03B
:1049D000C5FE099004F096FECDE90A0103F04DFDF5
:1049E000CDE90C0104F062F9149014991A9804F0BE
:1049F00023FF1A901499199804F01EFF1990149926
:104A0000189804F019FF1890DF480168DF48006823
:104A100005F070F80C90DE480168DE48006805F08B
:104A200069F80B900C9905F06DF94FF080410D90ED
:104A300005F060F81390D6480168D348006805F087
:104A400059F80C90D3480168D048006805F052F836
:104A50000B900C9904F082FE4FF080410D9005F010
:104A600049F81290CA480168006805F043F80D90B3
:104A7000C5480168006805F03DF80B90C54801681D
:104A8000006805F037F80990C0480168006805F033
:104A900031F80890099905F035F90A900B9905F05D
:104AA00031F90C900D9904F059FE11901299189853
:104AB00005F020F80D901199199805F01BF80C904D
:104AC0000D9905F01FF9109011991A9805F012F838
:104AD0000D901399189805F00DF80C900D9905F0AC
:104AE00011F90F901399199805F004F80D90129987
:104AF0001A9804F0FFFF0C900D9905F003F90E9041
:104B0000109804F0FFFDA44AA44BCDE9060104F07F
:104B10001FFBCDE90A01A248006804F0F3FDCDE9CE
:104B20000801DDE90A2304F0F3F8CDE90C0104F0F3
:104B3000BDF89B4908600F9804F0E4FD964A974B36
:104B4000CDE9060104F004FBCDE90A0195480068AF
:104B500004F0D8FDCDE90801DDE90A2304F0D8F816
:104B6000CDE90C0104F0A2F88E4908600E9804F01B
:104B7000C9FD894A894BCDE9060104F0E9FACDE97E
:104B80000A018948006804F0BDFDCDE90801DDE9AE
:104B90000A2304F0BDF8CDE90C0104F087F882493E
:104BA00008604FF07C50109904F0A4FF0C90179906
:104BB00004F0D4FD0D907A4801680D9804F0CEFD04
:104BC00017904FF07C500F9904F094FF0C901699B9
:104BD00004F0C4FD0D90734801680D9804F0BEFD0B
:104BE00016904FF07C500E9904F084FF0C901599AC
:104BF00004F0B4FD0D906C4801680D9804F0AEFD12
:104C0000159063481599006804F074FF0B905E4896
:104C10001699006804F06EFF09905E48006880F005
:104C200000400790179904F065FF0890099905F076
:104C300069F80A900B9905F065F85C490C9004F04E
:104C400059FF0D90514801680D9804F087FD4F49B8
:104C500008604F481699006804F04CFF0B904A48D2
:104C60001599006804F046FF0990484817990068B4
:104C700004F040FF0890099904F070FD0A900B9928
:104C800005F040F849490C9004F034FF0D9041487C
:104C900001680D9804F062FD3E4908603C48179990
:104CA000006804F027FF0B903A481599006804F05B
:104CB00021FF099035481699006804F01BFF089001
:104CC000099905F01FF80A900B9904F047FD374940
:104CD0000C9004F00FFF0D902B4801680D9804F024
:104CE0003DFD2949086028481799006804F002FF33
:104CF0000B9028481699006804F0FCFE09902348A0
:104D00001599006804F0F6FE0890099904F026FD54
:104D10000A900B9904F0F6FF24490C9004F0EAFE87
:104D20000D901B4801680D9804F018FD18490860A3
:104D300008460168006804F0DDFE0890124801682A
:104D4000006804F0D7FE069012480168006804F07D
:104D5000D1FE04900D480168006804F0CBFE03907A
:104D6000049904F0FBFC0590069904F0F7FC079009
:104D7000089904F0F3FC099004F0C4FCCDE90A01A1
:104D800016E0000089A18B3A840100207C010020FC
:104D900088010020800100202D431CEBE2361A3FE1
:104DA0008C01002090010020940100206F12833AB2
:104DB00003F063FBCDE90C0103F078FF1490664823
:104DC0001499006804F038FD634908606348149939
:104DD000006804F031FD6149086061481499006879
:104DE00004F02AFD5E4908605E481499006804F0EA
:104DF00023FD5C4908601C98B0F90400079004F09A
:104E00008FF9594A594BCDE9080104F0A1F9584AE4
:104E1000584BCDE90A0104F09BF9CDE90C0103F0F0
:104E200045FF554908601E9880680D900846016846
:104E30000D9804F093FC1E998860474801684FF074
:104E4000804004F057FE049045480168049804F03F
:104E500051FE0690414801684FF0404004F04AFE80
:104E6000049040480168049804F044FE05900699B7
:104E700004F074FC079004F045FCCDE9080102F051
:104E800041FF4FF066323D4BCDE90A0104F060F975
:104E9000CDE90C0103F00AFF1E9948603048016813
:104EA0004FF0804004F026FE01902D4801680198E3
:104EB00004F020FE0390294801684FF0404004F0C0
:104EC00019FE019025480168019804F013FE029034
:104ED000039904F017FF4FF07E51049004F03EFC5C
:104EE000059004F00FFCCDE908011B4801684FF064
:104EF000804004F0FFFD029018480168029804F019
:104F0000F9FD0490164801684FF0804004F0F2FD6E
:104F1000029014480168029804F0ECFD0390049993
:104F200004F01CFC059004F0EDFBCDE90601DDE981
:104F3000082303F02FF981F000414FF066320F4B48
:104F4000CDE90A0104F004F9CDE90C0103F0AEFE4D
:104F50001E9908601FB000BD7C0100208001002068
:104F600084010020880100201FF1D01CFE3FAF3FCC
:104F70007B14AE47E17A843FA401002066A64C4032
:104F80000020014908707047F90000200020014905
:104F900008707047F800002010B57D4840787C49C3
:104FA000097840EA01207B490988401A00B27A4911
:104FB00008807748C0787649897840EA01207549A9
:104FC0004988401A00B27449488071484079704954
:104FD000097940EA01206F498988401A00B26E4978
:104FE00088806B48407A6A49097A40EA01206B4917
:104FF0000988401A00B26A4908806548C07A644945
:10500000897A40EA012065494988401A00B264491A
:1050100048805F48407B5E49097B40EA01205F4948
:105020008988401A00B25E4988805E48007800286E
:1050300057D15D48007870B90020584908804880F1
:1050400088805A4908605A4908605A490860012016
:105050005549087010BD5248B0F90000534909681D
:105060000844524908604E48B0F9020050490968A6
:1050700008444F4908604A48B0F904004D4909689E
:1050800008444C49086048480078C82824D147485B
:1050900000684549097890FBF1F000B23F4908806B
:1050A000434800684049097890FBF1F000B23B4961
:1050B0004880404800683C49097890FBF1F000B214
:1050C0003649888000203849087001203549087029
:1050D0000320FDF76FFBBDE733480078401C3249E1
:1050E00008703548007800284FD13448007870B9EE
:1050F000002028490880488088803149086031496B
:1051000008603149086001202C490870A2E7224854
:10511000B0F900002A4909680844294908601E4876
:10512000B0F9020027490968084426490860234865
:105130000078C82824D1224800682049097890FBCB
:10514000F1F000B2134908801E4800681B49097835
:1051500090FBF1F000B20F4948801B4800681749E6
:10516000097890FBF1F000B20A49888000201349C9
:1051700008700120104908700220FDF71BFB69E749
:105180000E480078401C0D49087000BF62E700001F
:10519000E40C0020F2000020FA000020EC000020C7
:1051A00000010020F8000020140100200801002068
:1051B0000C01002010010020F90000202401002033
:1051C000180100201C0100202001002010B500F073
:1051D0009DFD002000F06CF8C82003F0C5F8012008
:1051E00000F02CF8322003F0BFF8032000F044F860
:1051F000322003F0B9F8012000F034F8322003F037
:10520000B3F8052000F024F8322003F0ADF80020B8
:1052100000F045F8322003F0A7F8012000F036F83E
:10522000322003F0A1F810BD10B5034B0E223B2134
:10523000D02000F0ABFD10BDE40C002038B50446D2
:10524000032302226B21D0200094FFF73EFB38BDE0
:1052500038B50446032302221A21D0200094FFF718
:1052600034FB38BD38B50446022304221C21D0206B
:105270000094FFF72AFB38BD38B504460223042208
:105280001B21D0200094FFF720FB38BD10B5044649
:10529000234601223721D020FFF7F6FA10BD10B5C2
:1052A0000446234605226A21D020FFF7EDFA10BDFF
:1052B00010B50446234606226B21D020FFF7E4FAFE
:1052C00010BD00002DE9F04104460D4616461F466C
:1052D000B4F57A7F01DD4FF47A74B5F57A7F01DD9C
:1052E0004FF47A75B6F57A7F01DD4FF47A76B7F52B
:1052F0007A7F01DD4FF47A77002C00DA0024002D4C
:1053000000DA0025002E00DA0026002F00DA002740
:1053100004F6FC0081B20C4802F0AAF805F6FC0085
:1053200081B24FF0804002F0A1F806F6FC0081B295
:105330004FF0804002F09CF807F6FC0081B2024872
:1053400002F094F8BDE8F0810034014010B54FF44C
:10535000A06000F039F810BD70B5002100230F22C5
:10536000C47804B3154C246804F4E064C4F5E06424
:10537000210AC1F10403CA40447804FA03F1847895
:105380001440214309010E4C0678A155047804F01D
:105390001F050124AC4005786D11AD0005F1E02535
:1053A000C5F8004109E0047804F01F050124AC4071
:1053B000044D0678761145F8264070BD0CED00E0EE
:1053C00000E400E080E100E002490143024A11608C
:1053D000704700000000FA050CED00E030B50A4609
:1053E000494B5B8ABBBB0023484C2360484C23607D
:1053F000484C23600388484C484D2D7824F81530DC
:105400004388474C454D2D7824F8153083883E4C11
:10541000424D2D7824F81530002119E03E4B33F928
:1054200011303C4C246823443A4C23603C4B33F904
:105430001130374C24682344354C2360324B33F908
:105440001130324C24682344304C23604B1CD9B2B9
:105450000A29E3DB39E0FFE72F4B304C247833F99E
:1054600014302C4C2468E31AB0F900402344294C32
:1054700023602B4B294C247833F91430244C2468B6
:10548000E31AB0F902402344214C23601E4B234C05
:10549000247833F914301D4C2468E31AB0F9044021
:1054A00023441A4C236004881B4B1C4D2D7823F891
:1054B000154044881A4B194D2D7823F815408388E0
:1054C000114C164D2D7824F81530124B1B680A2408
:1054D00093FBF4F31BB213800D4B1B6893FBF4F3A7
:1054E0001BB25380094B1B6893FBF4F31BB29380F0
:1054F0000A4B1B785B1C094C237023461B780A2B34
:1055000001D10023237030BDE80D0020B40100203C
:10551000B0010020AC010020C00D0020A801002037
:10552000D40D00202DE9F041044600260027B046A6
:105530002E492F4A1278606841F822002D492C4AE2
:105540001278206841F822002B492C4A1278A06872
:1055500041F8220000250FE0244850F8251030467D
:1055600004F0FCF80646234850F82510384604F0AD
:10557000F5F80746681CC5B2022DEDDB002508E0F2
:105580001D4850F82510404604F0E8F88046681C95
:10559000C5B20A2DF4DB4FF08041304604F04CF9DF
:1055A00060604FF08041384604F046F920601449AD
:1055B000404604F041F9A0600D480078401C0C49B9
:1055C00008700E480078401C0C49087008480078A4
:1055D000022802D1002006490870084800780A28ED
:1055E00002D1002005490870BDE8F081BC0100200F
:1055F000B8010020C4010020FC0D0020B9010020EA
:105600000000204129B1064AD2690243044BDA6105
:1056100004E0034AD2698243014BDA61704700001B
:105620000010024029B1064A12690243044B1A6174
:1056300004E0034A12698243014B1A61704700007B
:105640000010024029B1064A92690243044B9A6154
:1056500004E0034A92698243014B9A61704700005B
:105660000010024029B1064AD2680243044BDA60B6
:1056700004E0034AD2688243014BDA6070470000BD
:105680000010024030B500210022002400232D4DDF
:105690006D6805F00C0121B1042905D0082923D13A
:1056A00005E0294D056022E0274D05601FE0254DEE
:1056B0006D6805F47012234D6D6805F48034022581
:1056C00005EB92421CB9214D554305600BE01D4D81
:1056D0006D6805F400351DB11C4D5543056002E0B1
:1056E000194D5543056002E0174D056000BF00BF2E
:1056F000144D6D6805F0F0010909154D6B5C0568E6
:10570000DD4045600F4D6D6805F4E061090A104DFC
:105710006B5C4568DD4085600A4D6D6805F460513D
:10572000C90A0B4D6B5C4568DD40C560054D6D6871
:1057300005F44041890B074D6B5CC568B5FBF3F57B
:10574000056130BD0010024000127A0000093D00E2
:10575000000000201000002070B504460D46B4F98A
:105760000400B0F5966F14DAB4F90600B0F5966F40
:105770000FDA45480088142805DA43480088401CA1
:105780004149088021E000203F490880012028701D
:105790001BE0B4F90400B0F5966F13DAB4F9060013
:1057A000B0F5E16F0EDD38480088142805DA364878
:1057B0000088401C3449088007E0002032490880F6
:1057C000287002E0002030490880B4F9080040F257
:1057D000DC51884211DDA87878B92C48008814285B
:1057E00005DA2A480088401C284908801FE000206C
:1057F000264908800120A87019E0B4F9080040F299
:10580000DC51884210DAA87870B12048008814284A
:1058100005DA1E480088401C1C49088007E000206B
:105820001A490880A87002E0002018490880B4F9DD
:105830000400B0F5966F22DAB4F90600B0F5966F61
:105840001DDAB4F90000B0F5966F18DAB4F9020069
:10585000B0F5966F13DA0E4800881E280FD00C485A
:105860000088142805DA0A480088401C0849088086
:1058700008E01E200649088000F0ACFB02E0002092
:105880000349088070BD00002A0100202C0100207F
:105890002E010020018940F6B832511A09B20F4A90
:1058A0009180818809B2D180C18809B21180418874
:1058B00009B25180018809B21181418909B251812F
:1058C000018809B29181018809B2D181018809B2A8
:1058D0001182018809B2518270470000F20C002049
:1058E0000F49898881800E49C988C1800C4909887F
:1058F00001800B494988418009490989018108498A
:10590000498941810649898981810549C989C181BE
:105910000349098A01820249498A4182704700008D
:10592000F20C002030B503460C461546002207E075
:10593000184600F008F824F812009B1C501C82B294
:10594000AA42F5DB30BD0146088870472DE9F05FBB
:1059500080468A461746B8F1006F02D33348804527
:1059600001D3BDE8F09FFEF7FDFCA8F1006B4FEA04
:10597000DB25CBF34909C9F58064A74200DC3C462E
:105980004DE04FF0006101EBC5204A142849FFF7B4
:10599000C9FF00260BE009EB0600254931F810008D
:1059A0004FF6FF71884200D003E0701C86B2A64219
:1059B000F1DB00BFA6421BDA4FF0006101EBC5200E
:1059C000FEF766FC002608E03AF8160006EB09012F
:1059D000174A22F81100701C86B2A642F4DB4FF081
:1059E000006101EBC5204A14114900F023F804E0DE
:1059F00022465146404600F01DF8A74200D10FE074
:105A00006D1C4FF000090AEB440AA044381B87B212
:105A1000B7F5806F02DD4FF4806400E03C46B0E7EC
:105A200000BFFEF775FC00BF9BE700000000040804
:105A3000D60400202DE9F04105460E461746002405
:105A400007E036F814102846FEF76CFCAD1C601C0D
:105A500084B2BC42F5DBBDE8F081000070B50446BD
:105A6000208800F4587000B12088208800F0800061
:105A700040B3A08900F0800020B34C498C4201D192
:105A8000002008E04A498C4201D1002003E0494946
:105A90008C4200D1012048490A5C095C491C464BF4
:105AA0001954C0EB0021454B1944895CA18042493F
:105AB000095C434A125C914203D1A18921F0800123
:105AC000A18100BF208800F0200000286DD0A088B0
:105AD000C5B23C48007838B9AA2D05D10120394912
